{
  "_format": "hh-sol-artifact-1",
  "contractName": "CoordinatorAgent",
  "sourceName": "src/CoordinatorAgent.sol",
  "abi": [
    {
      "inputs": [
        {
          "internalType": "address",
          "name": "_priceOracle",
          "type": "address"
        }
      ],
      "stateMutability": "nonpayable",
      "type": "constructor"
    },
    {
      "anonymous": false,
      "inputs": [
        {
          "indexed": true,
          "internalType": "address",
          "name": "user",
          "type": "address"
        },
        {
          "indexed": true,
          "internalType": "address",
          "name": "executor",
          "type": "address"
        }
      ],
      "name": "DelegationRevoked",
      "type": "event"
    },
    {
      "anonymous": false,
      "inputs": [
        {
          "indexed": true,
          "internalType": "address",
          "name": "user",
          "type": "address"
        },
        {
          "indexed": true,
          "internalType": "address",
          "name": "executor",
          "type": "address"
        },
        {
          "indexed": false,
          "internalType": "uint256",
          "name": "amount",
          "type": "uint256"
        },
        {
          "indexed": false,
          "internalType": "uint256",
          "name": "price",
          "type": "uint256"
        }
      ],
      "name": "ExecutionTriggered",
      "type": "event"
    },
    {
      "anonymous": false,
      "inputs": [
        {
          "indexed": true,
          "internalType": "address",
          "name": "user",
          "type": "address"
        },
        {
          "indexed": true,
          "internalType": "address",
          "name": "token",
          "type": "address"
        },
        {
          "indexed": false,
          "internalType": "uint256",
          "name": "dailyLimit",
          "type": "uint256"
        },
        {
          "indexed": false,
          "internalType": "uint256",
          "name": "totalLimit",
          "type": "uint256"
        },
        {
          "indexed": false,
          "internalType": "uint256",
          "name": "duration",
          "type": "uint256"
        },
        {
          "indexed": false,
          "internalType": "uint256",
          "name": "targetDipBps",
          "type": "uint256"
        }
      ],
      "name": "PermissionReceived",
      "type": "event"
    },
    {
      "anonymous": false,
      "inputs": [
        {
          "indexed": true,
          "internalType": "address",
          "name": "user",
          "type": "address"
        }
      ],
      "name": "PermissionRevoked",
      "type": "event"
    },
    {
      "anonymous": false,
      "inputs": [
        {
          "indexed": true,
          "internalType": "address",
          "name": "user",
          "type": "address"
        },
        {
          "indexed": true,
          "internalType": "address",
          "name": "executor",
          "type": "address"
        },
        {
          "indexed": false,
          "internalType": "uint256",
          "name": "dailyLimit",
          "type": "uint256"
        }
      ],
      "name": "SubDelegationIssued",
      "type": "event"
    },
    {
      "inputs": [
        {
          "internalType": "address",
          "name": "user",
          "type": "address"
        }
      ],
      "name": "checkExecutionAllowed",
      "outputs": [
        {
          "internalType": "bool",
          "name": "allowed",
          "type": "bool"
        },
        {
          "internalType": "uint256",
          "name": "availableAmount",
          "type": "uint256"
        },
        {
          "internalType": "string",
          "name": "reason",
          "type": "string"
        }
      ],
      "stateMutability": "view",
      "type": "function"
    },
    {
      "inputs": [
        {
          "internalType": "address",
          "name": "",
          "type": "address"
        }
      ],
      "name": "delegations",
      "outputs": [
        {
          "internalType": "address",
          "name": "executor",
          "type": "address"
        },
        {
          "internalType": "uint256",
          "name": "dailyLimit",
          "type": "uint256"
        },
        {
          "internalType": "uint256",
          "name": "spentToday",
          "type": "uint256"
        },
        {
          "internalType": "uint256",
          "name": "lastResetDay",
          "type": "uint256"
        },
        {
          "internalType": "bool",
          "name": "active",
          "type": "bool"
        }
      ],
      "stateMutability": "view",
      "type": "function"
    },
    {
      "inputs": [
        {
          "internalType": "address",
          "name": "user",
          "type": "address"
        }
      ],
      "name": "getDailySpent",
      "outputs": [
        {
          "internalType": "uint256",
          "name": "",
          "type": "uint256"
        }
      ],
      "stateMutability": "view",
      "type": "function"
    },
    {
      "inputs": [
        {
          "internalType": "address",
          "name": "user",
          "type": "address"
        }
      ],
      "name": "getDelegation",
      "outputs": [
        {
          "components": [
            {
              "internalType": "address",
              "name": "executor",
              "type": "address"
            },
            {
              "internalType": "uint256",
              "name": "dailyLimit",
              "type": "uint256"
            },
            {
              "internalType": "uint256",
              "name": "spentToday",
              "type": "uint256"
            },
            {
              "internalType": "uint256",
              "name": "lastResetDay",
              "type": "uint256"
            },
            {
              "internalType": "bool",
              "name": "active",
              "type": "bool"
            }
          ],
          "internalType": "struct CoordinatorAgent.Delegation",
          "name": "",
          "type": "tuple"
        }
      ],
      "stateMutability": "view",
      "type": "function"
    },
    {
      "inputs": [
        {
          "internalType": "address",
          "name": "user",
          "type": "address"
        }
      ],
      "name": "getPermission",
      "outputs": [
        {
          "components": [
            {
              "internalType": "address",
              "name": "user",
              "type": "address"
            },
            {
              "internalType": "address",
              "name": "token",
              "type": "address"
            },
            {
              "internalType": "uint256",
              "name": "dailyLimit",
              "type": "uint256"
            },
            {
              "internalType": "uint256",
              "name": "totalLimit",
              "type": "uint256"
            },
            {
              "internalType": "uint256",
              "name": "startTime",
              "type": "uint256"
            },
            {
              "internalType": "uint256",
              "name": "duration",
              "type": "uint256"
            },
            {
              "internalType": "uint256",
              "name": "targetDipBps",
              "type": "uint256"
            },
            {
              "internalType": "bool",
              "name": "active",
              "type": "bool"
            }
          ],
          "internalType": "struct CoordinatorAgent.Permission",
          "name": "",
          "type": "tuple"
        }
      ],
      "stateMutability": "view",
      "type": "function"
    },
    {
      "inputs": [
        {
          "internalType": "address",
          "name": "user",
          "type": "address"
        }
      ],
      "name": "getRemainingTotal",
      "outputs": [
        {
          "internalType": "uint256",
          "name": "",
          "type": "uint256"
        }
      ],
      "stateMutability": "view",
      "type": "function"
    },
    {
      "inputs": [
        {
          "internalType": "address",
          "name": "user",
          "type": "address"
        },
        {
          "internalType": "address",
          "name": "executor",
          "type": "address"
        },
        {
          "internalType": "uint256",
          "name": "delegatedDailyLimit",
          "type": "uint256"
        }
      ],
      "name": "issueSubDelegation",
      "outputs": [],
      "stateMutability": "nonpayable",
      "type": "function"
    },
    {
      "inputs": [],
      "name": "owner",
      "outputs": [
        {
          "internalType": "address",
          "name": "",
          "type": "address"
        }
      ],
      "stateMutability": "view",
      "type": "function"
    },
    {
      "inputs": [
        {
          "internalType": "address",
          "name": "",
          "type": "address"
        }
      ],
      "name": "permissions",
      "outputs": [
        {
          "internalType": "address",
          "name": "user",
          "type": "address"
        },
        {
          "internalType": "address",
          "name": "token",
          "type": "address"
        },
        {
          "internalType": "uint256",
          "name": "dailyLimit",
          "type": "uint256"
        },
        {
          "internalType": "uint256",
          "name": "totalLimit",
          "type": "uint256"
        },
        {
          "internalType": "uint256",
          "name": "startTime",
          "type": "uint256"
        },
        {
          "internalType": "uint256",
          "name": "duration",
          "type": "uint256"
        },
        {
          "internalType": "uint256",
          "name": "targetDipBps",
          "type": "uint256"
        },
        {
          "internalType": "bool",
          "name": "active",
          "type": "bool"
        }
      ],
      "stateMutability": "view",
      "type": "function"
    },
    {
      "inputs": [],
      "name": "priceOracle",
      "outputs": [
        {
          "internalType": "address",
          "name": "",
          "type": "address"
        }
      ],
      "stateMutability": "view",
      "type": "function"
    },
    {
      "inputs": [
        {
          "internalType": "address",
          "name": "token",
          "type": "address"
        },
        {
          "internalType": "uint256",
          "name": "dailyLimit",
          "type": "uint256"
        },
        {
          "internalType": "uint256",
          "name": "totalLimit",
          "type": "uint256"
        },
        {
          "internalType": "uint256",
          "name": "durationDays",
          "type": "uint256"
        },
        {
          "internalType": "uint256",
          "name": "targetDipBps",
          "type": "uint256"
        }
      ],
      "name": "receivePermission",
      "outputs": [],
      "stateMutability": "nonpayable",
      "type": "function"
    },
    {
      "inputs": [
        {
          "internalType": "address",
          "name": "user",
          "type": "address"
        },
        {
          "internalType": "uint256",
          "name": "amount",
          "type": "uint256"
        },
        {
          "internalType": "uint256",
          "name": "price",
          "type": "uint256"
        }
      ],
      "name": "recordExecution",
      "outputs": [],
      "stateMutability": "nonpayable",
      "type": "function"
    },
    {
      "inputs": [
        {
          "internalType": "address",
          "name": "user",
          "type": "address"
        }
      ],
      "name": "revokePermission",
      "outputs": [],
      "stateMutability": "nonpayable",
      "type": "function"
    },
    {
      "inputs": [
        {
          "internalType": "address",
          "name": "_priceOracle",
          "type": "address"
        }
      ],
      "name": "setPriceOracle",
      "outputs": [],
      "stateMutability": "nonpayable",
      "type": "function"
    },
    {
      "inputs": [
        {
          "internalType": "address",
          "name": "",
          "type": "address"
        }
      ],
      "name": "totalSpent",
      "outputs": [
        {
          "internalType": "uint256",
          "name": "",
          "type": "uint256"
        }
      ],
      "stateMutability": "view",
      "type": "function"
    },
    {
      "inputs": [
        {
          "internalType": "address",
          "name": "newOwner",
          "type": "address"
        }
      ],
      "name": "transferOwnership",
      "outputs": [],
      "stateMutability": "nonpayable",
      "type": "function"
    }
  ],
  "bytecode": "0x608060405234801561001057600080fd5b5060405161138c38038061138c83398101604081905261002f91610062565b60008054336001600160a01b031991821617909155600180549091166001600160a01b0392909216919091179055610092565b60006020828403121561007457600080fd5b81516001600160a01b038116811461008b57600080fd5b9392505050565b6112eb806100a16000396000f3fe608060405234801561001057600080fd5b50600436106101005760003560e01c80635b8c933711610097578063a8949b4611610066578063a8949b4614610374578063bffe348614610394578063d273d25514610413578063f2fde38b1461042657600080fd5b80635b8c9337146102b957806383c1cd8a146102cc5780638da5cb5b1461034e578063a3bf5b9a1461036157600080fd5b80632b293768116100d35780632b293768146102165780634bce9bff146102715780634cd4bbf614610284578063530e784f146102a657600080fd5b806301e88208146101055780631412e7ae146101b55780631d7204ce146101d65780632630c12f146101eb575b600080fd5b6101686101133660046110d7565b6002602081905260009182526040909120805460018201549282015460038301546004840154600585015460068601546007909601546001600160a01b03958616979095169593949293919290919060ff1688565b604080516001600160a01b03998a168152989097166020890152958701949094526060860192909252608085015260a084015260c0830152151560e0820152610100015b60405180910390f35b6101c86101c33660046110d7565b610439565b6040519081526020016101ac565b6101e96101e43660046110f2565b6104a1565b005b6001546101fe906001600160a01b031681565b6040516001600160a01b0390911681526020016101ac565b6102296102243660046110d7565b61069d565b6040516101ac919081516001600160a01b0316815260208083015190820152604080830151908201526060808301519082015260809182015115159181019190915260a00190565b6101e961027f366004611125565b610738565b6102976102923660046110d7565b61096e565b6040516101ac93929190611167565b6101e96102b43660046110d7565b610b95565b6101c86102c73660046110d7565b610be1565b6102df6102da3660046110d7565b610c2a565b6040516101ac919060006101008201905060018060a01b038084511683528060208501511660208401525060408301516040830152606083015160608301526080830151608083015260a083015160a083015260c083015160c083015260e0830151151560e083015292915050565b6000546101fe906001600160a01b031681565b6101e961036f3660046110d7565b610d06565b6101c86103823660046110d7565b60046020526000908152604090205481565b6103df6103a23660046110d7565b6003602081905260009182526040909120805460018201546002830154938301546004909301546001600160a01b03909216939092909160ff1685565b604080516001600160a01b03909616865260208601949094529284019190915260608301521515608082015260a0016101ac565b6101e96104213660046111c7565b610dd7565b6101e96104343660046110d7565b611019565b6001600160a01b038116600090815260026020908152604080832060038101546004909352908320549091116104725750600092915050565b6001600160a01b038316600090815260046020526040902054600382015461049a9190611219565b9392505050565b6001600160a01b0383166000908152600360205260409020600481015460ff166105125760405162461bcd60e51b815260206004820152601f60248201527f436f6f7264696e61746f724167656e743a206e6f2064656c65676174696f6e0060448201526064015b60405180910390fd5b80546001600160a01b0316331461056b5760405162461bcd60e51b815260206004820152601e60248201527f436f6f7264696e61746f724167656e743a206e6f74206578656375746f7200006044820152606401610509565b600061057a6201518042611232565b905081600301548111156105975760006002830155600382018190555b81600101548483600201546105ac9190611254565b11156106095760405162461bcd60e51b815260206004820152602660248201527f436f6f7264696e61746f724167656e743a206461696c79206c696d697420657860448201526518d95959195960d21b6064820152608401610509565b8382600201600082825461061d9190611254565b90915550506001600160a01b0385166000908152600460205260408120805486929061064a908490611254565b9091555050604080518581526020810185905233916001600160a01b038816917f5298a38ebfaf708df608962953af16a9e2f5ed16e069b935b69489bae6ae4b4d91015b60405180910390a35050505050565b6106da6040518060a0016040528060006001600160a01b031681526020016000815260200160008152602001600081526020016000151581525090565b506001600160a01b03908116600090815260036020818152604092839020835160a0810185528154909516855260018101549185019190915260028101549284019290925281015460608301526004015460ff161515608082015290565b600084116107935760405162461bcd60e51b815260206004820152602260248201527f436f6f7264696e61746f724167656e743a207a65726f206461696c79206c696d6044820152611a5d60f21b6064820152608401610509565b838310156107e35760405162461bcd60e51b815260206004820181905260248201527f436f6f7264696e61746f724167656e743a20696e76616c6964206c696d6974736044820152606401610509565b600082116108335760405162461bcd60e51b815260206004820152601f60248201527f436f6f7264696e61746f724167656e743a207a65726f206475726174696f6e006044820152606401610509565b60408051610100810182523381526001600160a01b03871660208201529081018590526060810184905242608082015260a081016108748462015180611267565b8152602080820184905260016040928301819052336000818152600280855290859020865181546001600160a01b03199081166001600160a01b03928316178355958801519482018054909616948116949094179094559385015193830193909355606084015160038301556080840151600483015560a0840151600583015560c0840151600683015560e0909301516007909101805460ff1916911515919091179055908616907ffd3f6f32af26bc82ada773759a4144350be31c4bcdd971c4c8d834cad9e30242868661094c8762015180611267565b604080519384526020840192909252908201526060810185905260800161068e565b6001600160a01b03811660009081526002602090815260408083206003909252822060078201548392606092909160ff166109e157600080604051806040016040528060158152602001745065726d697373696f6e206e6f742061637469766560581b8152509450945094505050610b8e565b816005015482600401546109f59190611254565b421115610a37576000806040518060400160405280601281526020017114195c9b5a5cdcda5bdb88195e1c1a5c995960721b8152509450945094505050610b8e565b60038201546001600160a01b03871660009081526004602052604090205410610a965760008060405180604001604052806013815260200172151bdd185b081b1a5b5a5d081c995858da1959606a1b8152509450945094505050610b8e565b600481015460ff16610adf576000806040518060400160405280601481526020017327379030b1ba34bb32903232b632b3b0ba34b7b760611b8152509450945094505050610b8e565b6000610aee6201518042611232565b6002830154600384015491925090821115610b07575060005b808360010154610b179190611219565b6001600160a01b0389166000908152600460205260409020546003860154919750610b4191611219565b861115610b73576001600160a01b0388166000908152600460205260409020546003850154610b709190611219565b95505b50506040805160208101909152600081528415159550925050505b9193909250565b6000546001600160a01b03163314610bbf5760405162461bcd60e51b81526004016105099061127e565b600180546001600160a01b0319166001600160a01b0392909216919091179055565b6001600160a01b038116600090815260036020526040812081610c076201518042611232565b90508160030154811115610c1f575060009392505050565b506002015492915050565b610c8660405180610100016040528060006001600160a01b0316815260200160006001600160a01b0316815260200160008152602001600081526020016000815260200160008152602001600081526020016000151581525090565b506001600160a01b0390811660009081526002602081815260409283902083516101008101855281548616815260018201549095169185019190915290810154918301919091526003810154606083015260048101546080830152600581015460a0830152600681015460c08301526007015460ff16151560e082015290565b336001600160a01b0382161480610d2757506000546001600160a01b031633145b610d735760405162461bcd60e51b815260206004820181905260248201527f436f6f7264696e61746f724167656e743a206e6f7420617574686f72697a65646044820152606401610509565b6001600160a01b0381166000818152600260209081526040808320600701805460ff1990811690915560039092528083206004018054909216909155517f3541f93cbae8c4be65491b824efe1570976e740b18c6aa441db5291f4de4c9219190a250565b6000546001600160a01b03163314610e015760405162461bcd60e51b81526004016105099061127e565b6001600160a01b0383166000908152600260205260409020600781015460ff16610e7c5760405162461bcd60e51b815260206004820152602660248201527f436f6f7264696e61746f724167656e743a206e6f20616374697665207065726d60448201526534b9b9b4b7b760d11b6064820152608401610509565b8060020154821115610ede5760405162461bcd60e51b815260206004820152602560248201527f436f6f7264696e61746f724167656e743a2065786365656473206461696c79206044820152641b1a5b5a5d60da1b6064820152608401610509565b6001600160a01b038316610f345760405162461bcd60e51b815260206004820152601f60248201527f436f6f7264696e61746f724167656e743a207a65726f206578656375746f72006044820152606401610509565b6040518060a00160405280846001600160a01b03168152602001838152602001600081526020016201518042610f6a9190611232565b8152600160209182018190526001600160a01b0387811660008181526003808652604091829020875181546001600160a01b03191690861617815587870151958101959095558682015160028601556060870151908501556080909501516004909301805460ff19169315159390931790925592518581529286169290917f6114ed3d6ebe679b9544033952e1c27e5934c56dea59c0e46410d0c0bc93fda7910160405180910390a350505050565b6000546001600160a01b031633146110435760405162461bcd60e51b81526004016105099061127e565b6001600160a01b0381166110995760405162461bcd60e51b815260206004820152601e60248201527f436f6f7264696e61746f724167656e743a207a65726f206164647265737300006044820152606401610509565b600080546001600160a01b0319166001600160a01b0392909216919091179055565b80356001600160a01b03811681146110d257600080fd5b919050565b6000602082840312156110e957600080fd5b61049a826110bb565b60008060006060848603121561110757600080fd5b611110846110bb565b95602085013595506040909401359392505050565b600080600080600060a0868803121561113d57600080fd5b611146866110bb565b97602087013597506040870135966060810135965060800135945092505050565b83151581526000602084602084015260606040840152835180606085015260005b818110156111a457858101830151858201608001528201611188565b506000608082860101526080601f19601f83011685010192505050949350505050565b6000806000606084860312156111dc57600080fd5b6111e5846110bb565b92506111f3602085016110bb565b9150604084013590509250925092565b634e487b7160e01b600052601160045260246000fd5b8181038181111561122c5761122c611203565b92915050565b60008261124f57634e487b7160e01b600052601260045260246000fd5b500490565b8082018082111561122c5761122c611203565b808202811582820484141761122c5761122c611203565b6020808252601b908201527f436f6f7264696e61746f724167656e743a206e6f74206f776e6572000000000060408201526060019056fea2646970667358221220695caf75c2bc0c68aeb0e95d49ff00205cbfd26af2f168be53d1c607cc35ab6d64736f6c63430008180033",
  "linkReferences": {},
  "deployedLinkReferences": {}
}