{
  "_format": "hh-sol-artifact-1",
  "contractName": "ExecutionAgent",
  "sourceName": "src/ExecutionAgent.sol",
  "abi": [
    {
      "inputs": [
        {
          "internalType": "address",
          "name": "_coordinator",
          "type": "address"
        },
        {
          "internalType": "address",
          "name": "_priceOracle",
          "type": "address"
        },
        {
          "internalType": "address",
          "name": "_uniswapRouter",
          "type": "address"
        },
        {
          "internalType": "address",
          "name": "_usdcToken",
          "type": "address"
        },
        {
          "internalType": "address",
          "name": "_wethToken",
          "type": "address"
        }
      ],
      "stateMutability": "nonpayable",
      "type": "constructor"
    },
    {
      "inputs": [
        {
          "internalType": "address",
          "name": "token",
          "type": "address"
        }
      ],
      "name": "SafeERC20FailedOperation",
      "type": "error"
    },
    {
      "anonymous": false,
      "inputs": [
        {
          "indexed": true,
          "internalType": "address",
          "name": "token",
          "type": "address"
        },
        {
          "indexed": false,
          "internalType": "uint256",
          "name": "amount",
          "type": "uint256"
        }
      ],
      "name": "EmergencyWithdraw",
      "type": "event"
    },
    {
      "anonymous": false,
      "inputs": [
        {
          "indexed": true,
          "internalType": "address",
          "name": "user",
          "type": "address"
        },
        {
          "indexed": false,
          "internalType": "uint256",
          "name": "requested",
          "type": "uint256"
        },
        {
          "indexed": false,
          "internalType": "uint256",
          "name": "available",
          "type": "uint256"
        }
      ],
      "name": "QuotaExceeded",
      "type": "event"
    },
    {
      "anonymous": false,
      "inputs": [
        {
          "indexed": true,
          "internalType": "address",
          "name": "user",
          "type": "address"
        },
        {
          "indexed": true,
          "internalType": "address",
          "name": "tokenIn",
          "type": "address"
        },
        {
          "indexed": true,
          "internalType": "address",
          "name": "tokenOut",
          "type": "address"
        },
        {
          "indexed": false,
          "internalType": "uint256",
          "name": "amountIn",
          "type": "uint256"
        },
        {
          "indexed": false,
          "internalType": "uint256",
          "name": "amountOut",
          "type": "uint256"
        },
        {
          "indexed": false,
          "internalType": "uint256",
          "name": "price",
          "type": "uint256"
        }
      ],
      "name": "SwapExecuted",
      "type": "event"
    },
    {
      "inputs": [
        {
          "internalType": "address",
          "name": "user",
          "type": "address"
        },
        {
          "internalType": "uint256",
          "name": "targetDipBps",
          "type": "uint256"
        }
      ],
      "name": "checkPriceCondition",
      "outputs": [
        {
          "internalType": "bool",
          "name": "shouldExecute",
          "type": "bool"
        },
        {
          "internalType": "uint256",
          "name": "currentPrice",
          "type": "uint256"
        },
        {
          "internalType": "uint256",
          "name": "dipAmount",
          "type": "uint256"
        }
      ],
      "stateMutability": "view",
      "type": "function"
    },
    {
      "inputs": [],
      "name": "coordinator",
      "outputs": [
        {
          "internalType": "address",
          "name": "",
          "type": "address"
        }
      ],
      "stateMutability": "view",
      "type": "function"
    },
    {
      "inputs": [
        {
          "internalType": "address",
          "name": "token",
          "type": "address"
        },
        {
          "internalType": "uint256",
          "name": "amount",
          "type": "uint256"
        }
      ],
      "name": "emergencyWithdraw",
      "outputs": [],
      "stateMutability": "nonpayable",
      "type": "function"
    },
    {
      "inputs": [
        {
          "internalType": "address",
          "name": "user",
          "type": "address"
        },
        {
          "internalType": "uint256",
          "name": "amount",
          "type": "uint256"
        }
      ],
      "name": "executeSwap",
      "outputs": [
        {
          "internalType": "bool",
          "name": "success",
          "type": "bool"
        },
        {
          "internalType": "uint256",
          "name": "ethReceived",
          "type": "uint256"
        }
      ],
      "stateMutability": "nonpayable",
      "type": "function"
    },
    {
      "inputs": [],
      "name": "getGlobalStats",
      "outputs": [
        {
          "internalType": "uint256",
          "name": "swaps",
          "type": "uint256"
        },
        {
          "internalType": "uint256",
          "name": "usdcSpent",
          "type": "uint256"
        },
        {
          "internalType": "uint256",
          "name": "ethBought",
          "type": "uint256"
        }
      ],
      "stateMutability": "view",
      "type": "function"
    },
    {
      "inputs": [
        {
          "internalType": "address",
          "name": "user",
          "type": "address"
        }
      ],
      "name": "getUserStats",
      "outputs": [
        {
          "internalType": "uint256",
          "name": "ethAccumulated",
          "type": "uint256"
        },
        {
          "internalType": "uint256",
          "name": "availableToday",
          "type": "uint256"
        }
      ],
      "stateMutability": "view",
      "type": "function"
    },
    {
      "inputs": [],
      "name": "owner",
      "outputs": [
        {
          "internalType": "address",
          "name": "",
          "type": "address"
        }
      ],
      "stateMutability": "view",
      "type": "function"
    },
    {
      "inputs": [
        {
          "internalType": "address",
          "name": "user",
          "type": "address"
        },
        {
          "internalType": "uint256",
          "name": "amount",
          "type": "uint256"
        }
      ],
      "name": "previewSwap",
      "outputs": [
        {
          "internalType": "bool",
          "name": "canExecute",
          "type": "bool"
        },
        {
          "internalType": "uint256",
          "name": "availableAmount",
          "type": "uint256"
        },
        {
          "internalType": "uint256",
          "name": "estimatedEth",
          "type": "uint256"
        }
      ],
      "stateMutability": "view",
      "type": "function"
    },
    {
      "inputs": [],
      "name": "priceOracle",
      "outputs": [
        {
          "internalType": "address",
          "name": "",
          "type": "address"
        }
      ],
      "stateMutability": "view",
      "type": "function"
    },
    {
      "inputs": [
        {
          "internalType": "address",
          "name": "_coordinator",
          "type": "address"
        }
      ],
      "name": "setCoordinator",
      "outputs": [],
      "stateMutability": "nonpayable",
      "type": "function"
    },
    {
      "inputs": [
        {
          "internalType": "address",
          "name": "_priceOracle",
          "type": "address"
        }
      ],
      "name": "setPriceOracle",
      "outputs": [],
      "stateMutability": "nonpayable",
      "type": "function"
    },
    {
      "inputs": [
        {
          "internalType": "address",
          "name": "_router",
          "type": "address"
        }
      ],
      "name": "setUniswapRouter",
      "outputs": [],
      "stateMutability": "nonpayable",
      "type": "function"
    },
    {
      "inputs": [],
      "name": "totalEthBought",
      "outputs": [
        {
          "internalType": "uint256",
          "name": "",
          "type": "uint256"
        }
      ],
      "stateMutability": "view",
      "type": "function"
    },
    {
      "inputs": [],
      "name": "totalSwapsExecuted",
      "outputs": [
        {
          "internalType": "uint256",
          "name": "",
          "type": "uint256"
        }
      ],
      "stateMutability": "view",
      "type": "function"
    },
    {
      "inputs": [],
      "name": "totalUsdcSpent",
      "outputs": [
        {
          "internalType": "uint256",
          "name": "",
          "type": "uint256"
        }
      ],
      "stateMutability": "view",
      "type": "function"
    },
    {
      "inputs": [
        {
          "internalType": "address",
          "name": "newOwner",
          "type": "address"
        }
      ],
      "name": "transferOwnership",
      "outputs": [],
      "stateMutability": "nonpayable",
      "type": "function"
    },
    {
      "inputs": [],
      "name": "uniswapRouter",
      "outputs": [
        {
          "internalType": "address",
          "name": "",
          "type": "address"
        }
      ],
      "stateMutability": "view",
      "type": "function"
    },
    {
      "inputs": [],
      "name": "usdcToken",
      "outputs": [
        {
          "internalType": "address",
          "name": "",
          "type": "address"
        }
      ],
      "stateMutability": "view",
      "type": "function"
    },
    {
      "inputs": [
        {
          "internalType": "address",
          "name": "",
          "type": "address"
        }
      ],
      "name": "userEthAccumulated",
      "outputs": [
        {
          "internalType": "uint256",
          "name": "",
          "type": "uint256"
        }
      ],
      "stateMutability": "view",
      "type": "function"
    },
    {
      "inputs": [],
      "name": "wethToken",
      "outputs": [
        {
          "internalType": "address",
          "name": "",
          "type": "address"
        }
      ],
      "stateMutability": "view",
      "type": "function"
    }
  ],
  "bytecode": "0x608060405234801561001057600080fd5b506040516200101338038062001013833981016040819052610031916100b9565b60008054336001600160a01b0319918216179091556001805482166001600160a01b03978816179055600280548216958716959095179094556003805485169386169390931790925560048054841691851691909117905560058054909216921691909117905561011e565b80516001600160a01b03811681146100b457600080fd5b919050565b600080600080600060a086880312156100d157600080fd5b6100da8661009d565b94506100e86020870161009d565b93506100f66040870161009d565b92506101046060870161009d565b91506101126080870161009d565b90509295509295909350565b610ee5806200012e6000396000f3fe608060405234801561001057600080fd5b506004361061012c5760003560e01c80638ea98117116100ad578063baac0a1a11610071578063baac0a1a146102aa578063bea9849e146102d4578063d2a3bc3f146102e7578063ef5802ac14610307578063f2fde38b1461031057600080fd5b80638ea981171461023857806390d728aa1461024b57806395ccea671461027b578063a5636eaf1461028e578063b913257c146102a157600080fd5b80634e43603a116100f45780634e43603a146101b1578063530e784f146101d95780636b4169c3146101ee578063735de9f7146102125780638da5cb5b1461022557600080fd5b80630a0090971461013157806311eac85514610161578063242e347e146101745780632630c12f1461018b5780634b57b0be1461019e575b600080fd5b600154610144906001600160a01b031681565b6040516001600160a01b0390911681526020015b60405180910390f35b600454610144906001600160a01b031681565b61017d60085481565b604051908152602001610158565b600254610144906001600160a01b031681565b600554610144906001600160a01b031681565b6101c46101bf366004610c54565b610323565b60408051928352602083019190915201610158565b6101ec6101e7366004610c54565b6103c8565b005b60065460075460085460408051938452602084019290925290820152606001610158565b600354610144906001600160a01b031681565b600054610144906001600160a01b031681565b6101ec610246366004610c54565b61041d565b61025e610259366004610c76565b610469565b604080519315158452602084019290925290820152606001610158565b6101ec610289366004610c76565b6105be565b61025e61029c366004610c76565b610649565b61017d60065481565b6102bd6102b8366004610c76565b610776565b604080519215158352602083019190915201610158565b6101ec6102e2366004610c54565b610a7c565b61017d6102f5366004610c54565b60096020526000908152604090205481565b61017d60075481565b6101ec61031e366004610c54565b610ac8565b6001600160a01b0381811660008181526009602052604080822054600154915163266a5dfb60e11b81526004810194909452939192839283921690634cd4bbf690602401600060405180830381865afa158015610384573d6000803e3d6000fd5b505050506040513d6000823e601f3d908101601f191682016040526103ac9190810190610cc6565b5091509150816103bd5760006103bf565b805b92505050915091565b6000546001600160a01b031633146103fb5760405162461bcd60e51b81526004016103f290610da9565b60405180910390fd5b600280546001600160a01b0319166001600160a01b0392909216919091179055565b6000546001600160a01b031633146104475760405162461bcd60e51b81526004016103f290610da9565b600180546001600160a01b0319166001600160a01b0392909216919091179055565b60015460405163266a5dfb60e11b81526001600160a01b0384811660048301526000928392839283928392911690634cd4bbf690602401600060405180830381865afa1580156104bd573d6000803e3d6000fd5b505050506040513d6000823e601f3d908101601f191682016040526104e59190810190610cc6565b50915091508115806104f5575080155b1561050c57600080600094509450945050506105b7565b808611610519578561051b565b805b6002546040516341976e0960e01b81526000600482018190529296506001600160a01b03909116906341976e0990602401602060405180830381865afa158015610569573d6000803e3d6000fd5b505050506040513d601f19601f8201168201806040525081019061058d9190610de0565b9050806105a38668056bc75e2d63100000610e0f565b6105ad9190610e2c565b9350600195505050505b9250925092565b6000546001600160a01b031633146105e85760405162461bcd60e51b81526004016103f290610da9565b600054610602906001600160a01b03848116911683610b6a565b816001600160a01b03167f5fafa99d0643513820be26656b45130b01e1c03062e1266bf36f88cbd3bd96958260405161063d91815260200190565b60405180910390a25050565b60025460405163044a38b160e31b81526000600482018190526024820184905291829182918291829182916001600160a01b0390911690632251c58890604401606060405180830381865afa1580156106a6573d6000803e3d6000fd5b505050506040513d601f19601f820116820180604052508101906106ca9190610e4e565b925092509250826106e5576000955090935091506105b79050565b60015460405163266a5dfb60e11b81526001600160a01b038a811660048301526000921690634cd4bbf690602401600060405180830381865afa158015610730573d6000803e3d6000fd5b505050506040513d6000823e601f3d908101601f191682016040526107589190810190610cc6565b505090508080156107665750835b9650919450925050509250925092565b60015460405163266a5dfb60e11b81526001600160a01b0384811660048301526000928392839283928392911690634cd4bbf690602401600060405180830381865afa1580156107ca573d6000803e3d6000fd5b505050506040513d6000823e601f3d908101601f191682016040526107f29190810190610cc6565b925092509250826108505760408051878152600060208201526001600160a01b038916917f9162d9220d4156fa619ac9fd93cf051c8ce26dee06618127ca71d6a12b254523910160405180910390a260008094509450505050610a75565b85828111156108a15750604080518781526020810184905283916001600160a01b038a16917f9162d9220d4156fa619ac9fd93cf051c8ce26dee06618127ca71d6a12b254523910160405180910390a25b6002546040516341976e0960e01b8152600060048201819052916001600160a01b0316906341976e0990602401602060405180830381865afa1580156108eb573d6000803e3d6000fd5b505050506040513d601f19601f8201168201806040525081019061090f9190610de0565b9050806109258368056bc75e2d63100000610e0f565b61092f9190610e2c565b600154604051630eb9026760e11b81526001600160a01b038c811660048301526024820186905260448201859052929850911690631d7204ce90606401600060405180830381600087803b15801561098657600080fd5b505af115801561099a573d6000803e3d6000fd5b5050600680549250905060006109af83610e83565b919050555081600760008282546109c69190610e9c565b9250508190555085600860008282546109df9190610e9c565b90915550506001600160a01b03891660009081526009602052604081208054889290610a0c908490610e9c565b909155505060055460045460408051858152602081018a90529081018490526001600160a01b0392831692918216918c16907fad671c9d50262b75ba17bdf7e330ae0d7da971800b2526584a85f83d23296b159060600160405180910390a46001965050505050505b9250929050565b6000546001600160a01b03163314610aa65760405162461bcd60e51b81526004016103f290610da9565b600380546001600160a01b0319166001600160a01b0392909216919091179055565b6000546001600160a01b03163314610af25760405162461bcd60e51b81526004016103f290610da9565b6001600160a01b038116610b485760405162461bcd60e51b815260206004820152601c60248201527f457865637574696f6e4167656e743a207a65726f20616464726573730000000060448201526064016103f2565b600080546001600160a01b0319166001600160a01b0392909216919091179055565b604080516001600160a01b038416602482015260448082018490528251808303909101815260649091019091526020810180516001600160e01b031663a9059cbb60e01b179052610bbc908490610bc1565b505050565b600080602060008451602086016000885af180610be4576040513d6000823e3d81fd5b50506000513d91508115610bfc578060011415610c09565b6001600160a01b0384163b155b15610c3257604051635274afe760e01b81526001600160a01b03851660048201526024016103f2565b50505050565b80356001600160a01b0381168114610c4f57600080fd5b919050565b600060208284031215610c6657600080fd5b610c6f82610c38565b9392505050565b60008060408385031215610c8957600080fd5b610c9283610c38565b946020939093013593505050565b80518015158114610c4f57600080fd5b634e487b7160e01b600052604160045260246000fd5b600080600060608486031215610cdb57600080fd5b610ce484610ca0565b92506020808501519250604085015167ffffffffffffffff80821115610d0957600080fd5b818701915087601f830112610d1d57600080fd5b815181811115610d2f57610d2f610cb0565b604051601f8201601f19908116603f01168101908382118183101715610d5757610d57610cb0565b816040528281528a86848701011115610d6f57600080fd5b600093505b82841015610d915784840186015181850187015292850192610d74565b60008684830101528096505050505050509250925092565b60208082526019908201527f457865637574696f6e4167656e743a206e6f74206f776e657200000000000000604082015260600190565b600060208284031215610df257600080fd5b5051919050565b634e487b7160e01b600052601160045260246000fd5b8082028115828204841417610e2657610e26610df9565b92915050565b600082610e4957634e487b7160e01b600052601260045260246000fd5b500490565b600080600060608486031215610e6357600080fd5b610e6c84610ca0565b925060208401519150604084015190509250925092565b600060018201610e9557610e95610df9565b5060010190565b80820180821115610e2657610e26610df956fea2646970667358221220204cce8dcc39774472213b58094331fe83950ce2ca11d6fede9dcf9085e6dfee64736f6c63430008180033",
  "linkReferences": {},
  "deployedLinkReferences": {}
}