{
  "_format": "hh-sol-artifact-1",
  "contractName": "MockPriceOracle",
  "sourceName": "src/MockPriceOracle.sol",
  "abi": [
    {
      "inputs": [],
      "stateMutability": "nonpayable",
      "type": "constructor"
    },
    {
      "anonymous": false,
      "inputs": [
        {
          "indexed": true,
          "internalType": "address",
          "name": "previousOwner",
          "type": "address"
        },
        {
          "indexed": true,
          "internalType": "address",
          "name": "newOwner",
          "type": "address"
        }
      ],
      "name": "OwnershipTransferred",
      "type": "event"
    },
    {
      "anonymous": false,
      "inputs": [
        {
          "indexed": true,
          "internalType": "address",
          "name": "token",
          "type": "address"
        },
        {
          "indexed": false,
          "internalType": "uint256",
          "name": "oldPrice",
          "type": "uint256"
        },
        {
          "indexed": false,
          "internalType": "uint256",
          "name": "newPrice",
          "type": "uint256"
        }
      ],
      "name": "PriceUpdated",
      "type": "event"
    },
    {
      "inputs": [
        {
          "internalType": "address",
          "name": "token",
          "type": "address"
        },
        {
          "internalType": "uint256",
          "name": "targetDipBps",
          "type": "uint256"
        }
      ],
      "name": "checkPriceDip",
      "outputs": [
        {
          "internalType": "bool",
          "name": "hasDipped",
          "type": "bool"
        },
        {
          "internalType": "uint256",
          "name": "currentPrice",
          "type": "uint256"
        },
        {
          "internalType": "uint256",
          "name": "dropPercentBps",
          "type": "uint256"
        }
      ],
      "stateMutability": "view",
      "type": "function"
    },
    {
      "inputs": [
        {
          "internalType": "address",
          "name": "token",
          "type": "address"
        }
      ],
      "name": "getPrice",
      "outputs": [
        {
          "internalType": "uint256",
          "name": "",
          "type": "uint256"
        }
      ],
      "stateMutability": "view",
      "type": "function"
    },
    {
      "inputs": [],
      "name": "owner",
      "outputs": [
        {
          "internalType": "address",
          "name": "",
          "type": "address"
        }
      ],
      "stateMutability": "view",
      "type": "function"
    },
    {
      "inputs": [
        {
          "internalType": "address",
          "name": "",
          "type": "address"
        }
      ],
      "name": "previousPrices",
      "outputs": [
        {
          "internalType": "uint256",
          "name": "",
          "type": "uint256"
        }
      ],
      "stateMutability": "view",
      "type": "function"
    },
    {
      "inputs": [
        {
          "internalType": "address",
          "name": "",
          "type": "address"
        }
      ],
      "name": "prices",
      "outputs": [
        {
          "internalType": "uint256",
          "name": "",
          "type": "uint256"
        }
      ],
      "stateMutability": "view",
      "type": "function"
    },
    {
      "inputs": [
        {
          "internalType": "address",
          "name": "token",
          "type": "address"
        },
        {
          "internalType": "uint256",
          "name": "dipPercentBps",
          "type": "uint256"
        }
      ],
      "name": "simulateDip",
      "outputs": [],
      "stateMutability": "nonpayable",
      "type": "function"
    },
    {
      "inputs": [
        {
          "internalType": "address",
          "name": "newOwner",
          "type": "address"
        }
      ],
      "name": "transferOwnership",
      "outputs": [],
      "stateMutability": "nonpayable",
      "type": "function"
    },
    {
      "inputs": [
        {
          "internalType": "address",
          "name": "token",
          "type": "address"
        },
        {
          "internalType": "uint256",
          "name": "newPrice",
          "type": "uint256"
        }
      ],
      "name": "updatePrice",
      "outputs": [],
      "stateMutability": "nonpayable",
      "type": "function"
    }
  ],
  "bytecode": "0x608060405234801561001057600080fd5b50600080546001600160a01b0319163317815580526445d964b8007fa6eef7e35abe7026729641147f7915573c7e97b47efa546f5f6e3230263bcb4981905560026020527fac33ff75c19e70fe83507db0d683fd3465c996598dc972688b7ace676c89077b55610602806100856000396000f3fe608060405234801561001057600080fd5b50600436106100885760003560e01c80634f0a799f1161005b5780634f0a799f146101215780638da5cb5b14610141578063cfed246b1461016c578063f2fde38b1461018c57600080fd5b80632251c5881461008d5780632d85512d146100c257806341976e09146100d7578063457972de1461010e575b600080fd5b6100a061009b3660046104e1565b61019f565b6040805193151584526020840192909252908201526060015b60405180910390f35b6100d56100d03660046104e1565b61021e565b005b6101006100e536600461050b565b6001600160a01b031660009081526001602052604090205490565b6040519081526020016100b9565b6100d561011c3660046104e1565b610353565b61010061012f36600461050b565b60026020526000908152604090205481565b600054610154906001600160a01b031681565b6040516001600160a01b0390911681526020016100b9565b61010061017a36600461050b565b60016020526000908152604090205481565b6100d561019a36600461050b565b6103ea565b6001600160a01b0382166000908152600260209081526040808320546001909252822054829182918115806101d45750818110155b156101e9576000945092508391506102179050565b816101f48282610543565b6102009061271061055c565b61020a9190610573565b8681101595509093509150505b9250925092565b6000546001600160a01b031633146102515760405162461bcd60e51b815260040161024890610595565b60405180910390fd5b6001600160a01b038216600090815260016020526040902054806102b75760405162461bcd60e51b815260206004820152601d60248201527f4d6f636b50726963654f7261636c653a206e6f207072696365207365740000006044820152606401610248565b6001600160a01b03831660009081526002602052604081208290556127106102df848461055c565b6102e99190610573565b6102f39083610543565b6001600160a01b038516600081815260016020908152604091829020849055815186815290810184905292935090917fb556fac599c3c70efb9ab1fa725ecace6c81cc48d1455f886607def065f3e0c0910160405180910390a250505050565b6000546001600160a01b0316331461037d5760405162461bcd60e51b815260040161024890610595565b6001600160a01b0382166000818152600160208181526040808420805460028452948290208590559282529185905581518381529081018590529192917fb556fac599c3c70efb9ab1fa725ecace6c81cc48d1455f886607def065f3e0c0910160405180910390a2505050565b6000546001600160a01b031633146104145760405162461bcd60e51b815260040161024890610595565b6001600160a01b03811661046a5760405162461bcd60e51b815260206004820152601d60248201527f4d6f636b50726963654f7261636c653a207a65726f20616464726573730000006044820152606401610248565b600080546040516001600160a01b03808516939216917f8be0079c531659141344cd1fd0a4f28419497f9722a3daafe3b4186f6b6457e091a3600080546001600160a01b0319166001600160a01b0392909216919091179055565b80356001600160a01b03811681146104dc57600080fd5b919050565b600080604083850312156104f457600080fd5b6104fd836104c5565b946020939093013593505050565b60006020828403121561051d57600080fd5b610526826104c5565b9392505050565b634e487b7160e01b600052601160045260246000fd5b818103818111156105565761055661052d565b92915050565b80820281158282048414176105565761055661052d565b60008261059057634e487b7160e01b600052601260045260246000fd5b500490565b6020808252601a908201527f4d6f636b50726963654f7261636c653a206e6f74206f776e657200000000000060408201526060019056fea26469706673582212205095ab8fb3fa0413a06e6d4ddd32c7b4df32a7186245a346e7e61aa286a5f2e664736f6c63430008180033",
  "linkReferences": {},
  "deployedLinkReferences": {}
}